:20000000000001207B07000087070000870700008707000087070000870700000000000077
:20002000000000000000000000000000870700008707000000000000870700008707000088
:20004000870700008707000087070000870700008707000087070000870700008707000030
:20006000870700008707000087070000870700008707000087070000870700008707000010
:200080008707000087070000870700008707000087070000870700008707000087070000F0
:2000A0008707000087070000870700008707000087070000870700008707000087070000D0
:2000C0008707000087070000870700008707000087070000870700008707000087070000B0
:0400E000870700008E
:2000E400ADF1200DB148006800F4E020000C01900199012088408DF80800AC48006800F0E3
:200104000700009012E1AA48007860B3A94946F65A100860A849086840F001000860A549EC
:2001240001200860A2480078A0B1A448007840B19DF80800A2494FF4FA32B2FBF0F008603E
:2001440006E19DF808009E494FF4FA42B2FBF0F00860FDE09DF8080099494FF40042B2FB2E
:20016400F0F00860F4E09DF8080095494FF40042B2FBF0F00860EBE09DF80800904942F2F5
:200184001072B2FBF0F00860E2E08C48007840B19DF808008A494FF4FA32B2FBF0F0086011
:2001A400D6E09DF8080086494FF4FA42B2FBF0F00860CDE0834800686FF39F20ADF81800E7
:2001C40011E08148059022E0804805901FE0804805901CE07F48059019E07F48059016E06E
:2001E4007E48059013E07748006810F4E020E8D0B0F58030E8D0B0F58030E8D0B0F580305B
:20020400E8D0B0F58030E8D0B0F58030E8D0BDF9180018B905986A49086099E0BDF918006A
:20022400400B05D3BDF9180040F47040ADF818006B48007830B16B48006803906A48006854
:20024400049005E06948006803906948006804900498DDED030AC0F5407000EE100AB8EE42
:20026400C01AB7EE000A01EE200ADDED030ABDF9180001EE100AF2EE001AB8EEC11A20EEA1
:20028400210A61EE200A80EE800A059800EE900AB7EE001AF8EE600A31EE400A80EE800A29
:2002A400BCEEC00A464910EE100A086050E09DF8082049484249B0FBF2F0086048E04D48FC
:2002C400007858B33B4946F65A1008603A49086840F002000860374901200860454800786A
:2002E400A0B13648007840B19DF8080034494FF4FA32B2FBF0F008602AE09DF80800304924
:200304004FF4FA42B2FBF0F0086021E09DF8082032482B49B0FBF2F0086019E09DF808200E
:200324002E482749B0FBF2F0086011E0009800283FF4E9AE401E3FF41FAF401E3FF425AF9F
:20034400401E3FF437AF401EB1D0401EB7D0FFE708B070472849086840F4700008602749AC
:200364004FF4B5400880264980200860114946F65A10086013494FF4803008600B480B497C
:20038400006820F0071040F0030008600949002008601C481B49006820F0300008601A481B
:2003A4001949006820F0300008607047080401400089204200040140500401403C862042DA
:2003C400180000200404014060E31600C0C62D00808D5B00001BB70000366E01006CDC0263
:2003E400D8802042841020006C102000641020004C1020000489204288ED00E00C48004007
:20040400143004E01010014014100140002A4AD05FEA000C8B071CD1830722D1102A08D340
:2004240070B4103A78C978C0103AFBD270BC103238D0042A2CD3082A05D30C2A24BF08C923
:2004440008C008C908C008C908C092072AD0920F22E00B780370491C401C521E22D08B07BD
:20046400F7D1C30714D18307D8D0121F12D308C903801B0C4380001D121FF8D20AE008C9A8
:2004840003701B0A43701B0A83701B0AC370001D121FF4D2121D05D00B780370491C401CCE
:2004A400521EF9D160467047002213460A46194671B510F0030F0BD0002A82BF00F8011BE5
:2004C400B2F1010210F0030FF6D1002A08BF71BD11F0FF0141EA0121042A18D341EA0141A6
:2004E400082A0FD30E46102A08D30C460D46B2F10F0312F00F0272C0103BFCD812F0080FA4
:2005040018BF42C012F0040F18BF40F8041B12F0020F18BF20F8021B12F0010F18BF017042
:2005240071BD70471448B0B5B0F1FF3F01D000F0BBF8124D1248A84210D01248124CA042A1
:200544000CD0001B083CC71054F8080F017855F821206168401C90477F1EF5D100F04FF885
:200564000A4D0B4CA54205D002E054F8040B8047A542FAD1B0BDC046FFFFFFFFB40700002D
:20058400BC070000C4070000BC07000000000000000000002DE9F041054615F8017B904615
:2005A4000E461CE0B8F1000F05F101050BD0FF2C09D8022015F8011B401E41EA0424F9D186
:2005C40001E0042C02D315F8011B00E0394630462246FFF76DFFA61901E006F8010B15F8B2
:2005E400010B8742F9D115F8014B002CE9D115F8010B2C7800022418D4D1BDE8F0817047AC
:200604004EF68851CEF2000108684FF0F00340EA034008600C4885460C4885446F46072069
:200624008743BD460A486F460760FFF77AFF00F0ACF8002801D0FFF775FF00F07FF801208D
:2006440000F00EF8FEE7C04600FE0020000200001400002000BF704708B5FFF7FBFFFEE759
:2006640038B50D4C0546A06820B10C48B0F1FF3F00D080470A4800688047606810B10146F1
:2006840028468847206800B18047064800688047FFF7E2FF38BDC04600000020FFFFFFFFAE
:2006A4000C00002010000020F8B506460F4D104F7388002417E0A00000EBC40032185168BE
:2006C4009068D26852B9AF420BD00A7855F822200346491C08461946904701E0FFF796FE5F
:2006E4007388641CA4B2A342E5DCF8BDB4070000BC070000ADF1080D0D494FF4B540088083
:200704000C49087840F0010008700B49087880F00100087042F21070009000980028F4D0D2
:200724000098401E009000980028F9D1EDE7C0460C480040044C0040024C00400449B1F12A
:20074400FF3F07BF0021081C0868091DFFF7D2BFFFFFFFFF0349086070470249091F0860ED
:200764007047704710000020D0F80320C31D08461946FFF74BBE08B5FFF7ECFDFFF740BFCF
:0E07840008BDFEE70122FFF705BF0120704708
:20079800000202080001000000670700006707020600C0C62D00020000000000890700000B
:0C07B8006D070000980700000000002002
:00000001FF
